:100000000C94E5020C94DA040C9407050C940D038F
:100010000C940D030C940D030C940D030C945308D5
:100020000C940D030C940D030C940D030C940D0310
:100030000C940D030C9418030C940D030C940D03F5
:100040000C9434050C940D030C94E5060C940D03EC
:100050000C940D030C940D030C940D030C940D03E0
:100060000C941C0E0C940D030000000024002700CB
:100070002A0000000000250028002B0000000000DE
:1000800023002600290004040404040404040202DA
:100090000202020203030303030301020408102007
:1000A0004080010204081020010204081020000012
:1000B0000007000201000003040600000000000029
:1000C000000002FF0FFF0FFF0FFF0FFF0FFF0FFFDB
:1000D0000FFF0FE305E305E305E305E305E305E3B0
:1000E00005E3050F000F000F000F000F000F000FBA
:1000F000000F00FF00FF00FF00FF00FF00FF00FFF8
:1001000000FF00F000F000F000F000F000F000F060
:1001100000F000F00FF00FF00FF00FF00FF00FF005
:100120000FF00F000F000F000F000F000F000F0067
:100130000F000F0F0F0F0F0F0F0F0F0F0F0F0F0FDE
:100140000F0F0F0F000F000F000F000F000F000F19
:10015000000F000F000F000F000F000F000F000F27
:10016000000F000F000F000F000F000F000F000F17
:10017000000F000F000F000F000F000F000F000F07
:10018000000F000F000F000F000F000F000F000FF7
:10019000000F000F000F000F000F000F000F000FE7
:1001A000000F000F000F000F000F000F000F000FD7
:1001B000000F000F000F000F000F000F000F000FC7
:1001C000000F00F000F000F000F000F000F000F090
:1001D00000F000F000F000F000F000F000F000F09F
:1001E00000F000F000F000F000F000F000F000F08F
:1001F00000F000F000F000F000F000F000F000F07F
:1002000000F000F000F000F000F000F000F000F06E
:1002100000F000F000F000F000F000F000F000F05E
:1002200000F000F000F000F000F000F000F000F04E
:1002300000F000F000F000F000F000F000F000F03E
:1002400000F000000F000F000F000F000F000F0064
:100250000F000F000F000F000F000F000F000F0026
:100260000F000F000F000F000F000F000F000F0016
:100270000F000F000F000F000F000F000F000F0006
:100280000F000F000F000F000F000F000F000F00F6
:100290000F000F000F000F000F000F000F000F00E6
:1002A0000F000F000F000F000F000F000F000F00D6
:1002B0000F000F000F000F000F000F000F000F00C6
:1002C0000F000F000000000000000000005F0000B1
:1002D000000000000007000700000000147F147FEA
:1002E00014000000242A7F2A12000000231308644F
:1002F000620000003649552250000000000503004E
:10030000000000001C2241000000000041221C00EF
:1003100000000000082A1C2A0800000008083E0807
:1003200008000000A06000000000000008080808A5
:1003300008000000606000000000000020100804B9
:10034000020000003E5149453E00000000427F404F
:10035000000000006251494946000000224149491D
:10036000360000001814127F100000002745454594
:10037000390000003C4A494930000000017109057C
:100380000300000036494949360000000649492962
:100390001E000000003636000000000000AC6C00BB
:1003A000000000000814224100000000141414147E
:1003B000140000004122140800000000020151094D
:1003C00006000000324979413E0000007E0909091B
:1003D0007E0000007F494949360000003E4141410E
:1003E000220000007F4141221C0000007F49494952
:1003F000410000007F090909010000003E41415110
:10040000720000007F0808087F000000417F410063
:10041000000000002040413F010000007F0814223E
:10042000410000007F404040400000007F020C027D
:100430007F0000007F0408107F0000003E41414122
:100440003E0000007F090909060000003E415121DD
:100450005E0000007F09192946000000264949492D
:100460003200000001017F01010000003F404040D8
:100470003F0000001F2040201F0000003F40384088
:100480003F000000631408146300000003047804B4
:100490000300000061514945430000007F414100D5
:1004A00000000000020408102000000041417F000D
:1004B000000000000402010204000000808080802F
:1004C0008000000001020400000000002054545489
:1004D000780000007F484444380000003844442835
:1004E00000000000384444487F0000003854545451
:1004F00018000000087E09020000000018A4A4A44F
:100500007C0000007F08040478000000007D0000EB
:100510000000000080847D00000000007F1028445F
:1005200000000000417F4000000000007C0418042F
:10053000780000007C08047C000000003844443847
:1005400000000000FC24241800000000182424FCF3
:1005500000000000007C08040000000048545424FF
:1005600000000000047F4400000000003C40407C8C
:10057000000000001C2040201C0000003C403040D7
:100580003C00000044281028440000001CA0A07C6F
:10059000000000004464544C440000000836410050
:1005A00000000000007F000000000000413608004D
:1005B0000000000002010102010000000205050226
:1005C000000000000F03E107460D11241FBECFEF0E
:1005D000D8E0DEBFCDBF11E0A0E0B1E0E0EDFFE18B
:1005E00002C005900D92AA31B107D9F713E0AAE134
:1005F000B1E001C01D92A538B107E1F715E0CAECE2
:10060000D5E004C02297FE010E94DA0FC43CD10756
:10061000C9F70E9471040C94E60F0C9400008AE163
:1006200091E00E94E30C81E291E00E944509089567
:100630001F920F920FB60F9211242F933F934F9357
:100640005F936F937F938F939F93AF93BF93EF933A
:10065000FF938091A2016091A1010E9433098091D2
:10066000A2018F5F8093A201883058F01092A201FE
:100670008091A1018F5F8093A101803110F01092D1
:10068000A101FF91EF91BF91AF919F918F917F91C8
:100690006F915F914F913F912F910F900FBE0F90EF
:1006A0001F9018958AE191E00E94740C08950F93B1
:1006B0001F9384E893E060E070E00E94970F682F3A
:1006C0000AE111E0C80170E00E94C50CC8016FE8A2
:1006D00073E00E941D0C01E211E0C8010E94090CA8
:1006E000C8016FEF7FE00E9478091F910F91089574
:1006F000FF920F931F930AE111E0C8010E944F0C73
:10070000F82EC8010E944F0C5F2D40E0282F30E0EA
:10071000242B352BC9011F910F91FF900895AF92A3
:10072000BF92CF92DF92EF92FF920F931F93DF93CE
:10073000CF93CDB7DEB7C059D0400FB6F894DEBF27
:100740000FBECDBF8AE191E00E944F0C8C34F9F0CE
:100750008D3440F4833409F459C0843499F08134E1
:1007600039F499C08035D9F0823581F18D3411F09A
:1007700080E0A5C0CC24DD2451E1A52EB12CAC0E27
:10078000BD1E76C081E291E00E945E0997C00E9482
:100790007803BC0181E291E00E9478098FC08AE170
:1007A00091E00E944F0C182F0E9478039C01612F4A
:1007B00070E044E0759567954A95E1F71F7081E216
:1007C00091E0412F01E00E94160A78C08AE191E091
:1007D0000E944F0CD82E8E010F5F1F4F21E1E22E99
:1007E000F12CEC0EFD1E0E947803F8018193919389
:1007F0008F01EE15FF05B9F781E291E06D2DAE0195
:100800004F5F5F4F21E00E94B40958C08AE191E038
:100810000E944F0CD82E8E010F5F1F4F91E1E92EE1
:10082000F12CEC0EFD1E0E947803F8018193919348
:100830008F01EE15FF05B9F781E291E06D2DAE0154
:100840004F5F5F4F21E00E94E60938C00E947803A5
:10085000F701819391937F010F5F1F4F08301105BE
:10086000A9F70894C11CD11CF8E0CF16D10459F0A7
:10087000760184E0EE0CFF1C8A95E1F7EA0CFB1C84
:1008800000E010E0E3CF81E291E0BE016F5E7F4FB8
:100890000E94920913C08AE191E00E944F0C182F28
:1008A0000E9478037C018AE191E00E944F0C282F7E
:1008B00081E291E0612FA7010E946C0B81E0C0579B
:1008C000DF4F0FB6F894DEBF0FBECDBFCF91DF91E3
:1008D0001F910F91FF90EF90DF90CF90BF90AF905E
:1008E00008950E947C050E9457030E945203FDCF89
:1008F000833071F0843028F48130A1F0823021F50A
:1009000014C08630B1F08730D1F08430E9F404C0EF
:10091000809180008F7703C0809180008F7D8093CD
:100920008000089584B58F7702C084B58F7D84BD23
:1009300008958091B0008F778093B00008958091E2
:10094000B0008F7D8093B0000895FF920F931F93A6
:10095000F62E482F50E0CA0182559F4FFC0124918A
:10096000CA0186569F4FFC0114914A575F4FFA0106
:1009700004910023D9F0222319F0822F0E947804D9
:10098000E02FF0E0EE0FFF1FEE58FF4FA591B4915E
:10099000FF2031F49FB7F8948C911095812304C007
:1009A0009FB7F8948C91812B8C939FBF1F910F91CF
:1009B000FF9008951F920F920FB60F9211242F935C
:1009C0003F934F935F936F937F938F939F93AF93D7
:1009D000BF93EF93FF938091A3019091A401892B82
:1009E00029F0E091A301F091A4010995FF91EF9105
:1009F000BF91AF919F918F917F916F915F914F9137
:100A00003F912F910F900FBE0F901F9018951F923E
:100A10000F920FB60F9211242F933F934F935F9332
:100A20006F937F938F939F93AF93BF93EF93FF93B6
:100A30008091A5019091A601892B29F0E091A50153
:100A4000F091A6010995FF91EF91BF91AF919F9110
:100A50008F917F916F915F914F913F912F910F9067
:100A60000FBE0F901F9018951F920F920FB60F9206
:100A700011242F933F938F939F93AF93BF938091B4
:100A8000AB019091AC01A091AD01B091AE0130915C
:100A9000AF010196A11DB11D232F2D5F2D3720F031
:100AA0002D570196A11DB11D2093AF018093AB017D
:100AB0009093AC01A093AD01B093AE018091A701DA
:100AC0009091A801A091A901B091AA010196A11D40
:100AD000B11D8093A7019093A801A093A901B093A1
:100AE000AA01BF91AF919F918F913F912F910F904C
:100AF0000FBE0F901F901895789484B5826084BDC6
:100B000084B5816084BD85B5826085BD85B5816011
:100B100085BDEEE6F0E0808181608083E1E8F0E071
:100B20001082808182608083808181608083E0E8A0
:100B3000F0E0808181608083E1EBF0E0808184607F
:100B40008083E0EBF0E0808181608083EAE7F0E081
:100B500080818460808380818260808380818160E5
:100B600080838081806880831092C10008950F93F4
:100B70001F93CF93DF938C01EB0109C02196D8011D
:100B8000ED91FC910190F081E02DC80109956881FB
:100B90006623A1F7DF91CF911F910F910895EF92F6
:100BA000FF920F931F93CF93DF938C017B01EA0198
:100BB0000CC0D7016D917D01D801ED91FC910190A0
:100BC000F081E02DC80109952197209791F7DF91D9
:100BD000CF911F910F91FF90EF900895DC01ED915F
:100BE000FC910280F381E02D099508952F923F92A8
:100BF0004F925F926F927F928F929F92AF92BF922D
:100C0000CF92DF92EF92FF920F931F93DF93CF93D8
:100C1000CDB7DEB7A0970FB6F894DEBF0FBECDBF3D
:100C20001C016A017B01411551056105710549F4FB
:100C300040E350E060E070E020E030E00E94AF066A
:100C400054C0882499245401422E552466247724C4
:100C500001E010E00C0F1D1F080D191DC701B601A2
:100C6000A30192010E949B0FF80160830894811CEC
:100C7000911CA11CB11CC701B601A30192010E94E5
:100C80009B0FC901DA016C017D01C114D104E1049B
:100C9000F104F1F681E0E82EF12CEC0EFD1EE80CDB
:100CA000F91C3E010894611C711CD501C401019717
:100CB000A109B1096C01C818D90814C0F601EE0DDC
:100CC000FF1D40814A3010F4405D01C0495C50E096
:100CD00060E070E0C10120E030E00E94AF060894BF
:100CE000E108F1086E147F0449F7A0960FB6F89456
:100CF000DEBF0FBECDBFCF91DF911F910F91FF904F
:100D0000EF90DF90CF90BF90AF909F908F907F90AB
:100D10006F905F904F903F902F900895DC012115C8
:100D2000310541F4ED91FC910190F081E02D642FAB
:100D3000099508950E94F6050895EF92FF920F938A
:100D40001F939A01E62EFF2400E010E0B801A701EE
:100D50000E948E061F910F91FF90EF900895EF92E1
:100D6000FF920F931F93CF93DF93EC017A018B01D6
:100D70002115310541F4E881F9810190F081E02DE0
:100D8000642F09951BC02A303105B1F477FF10C0DC
:100D90004DE250E060E070E020E030E00E94AF06FD
:100DA00010950095F094E094E11CF11C011D111DBB
:100DB000CE01B801A7012AE00E94F605DF91CF918C
:100DC0001F910F91FF90EF9008951F920F920FB611
:100DD0000F9211242F933F934F938F939F93EF93F1
:100DE000FF934091C600E0913002F09131023196BC
:100DF0009F012F77307031978091320290913302AA
:100E00002817390739F0E055FE4F408330933102FF
:100E100020933002FF91EF919F918F914F913F91DD
:100E20002F910F900FBE0F901F901895CF93DF93C7
:100E3000EC019A01AB01E885F985203081EE380795
:100E400080E0480780E0580709F449C081E090E05D
:100E50000A8802C0880F991F0A94E2F7808360E035
:100E600079E08DE390E00E94BD0F2150304040407A
:100E70005040CA01B90122E030E040E050E00E9459
:100E8000BD0FEC81FD813083EE81FF812083EA85F7
:100E9000FB85208141E050E0CA010E8402C0880F2A
:100EA000991F0A94E2F7282B2083EA85FB8520818D
:100EB000CA010F8402C0880F991F0A94E2F7282BF9
:100EC0002083EA85FB858081088802C0440F551F76
:100ED0000A94E2F7842B8083DF91CF9108951082EA
:100EE00020E130E0CECFDC011296ED91FC9113971A
:100EF000E058FF4F2191319180819181281B390B5E
:100F00002F773070C9010895DC011296ED91FC91A4
:100F10001397EE57FF4F2081318192918291E058D3
:100F2000F0408217930719F42FEF3FEF05C0E20F4F
:100F3000F31F8081282F30E0C9010895DC0112964B
:100F4000ED91FC911397DF01AE57BF4F2D913C916E
:100F50001197E058FF4F80819181E058F04082174F
:100F6000930719F42FEF3FEF0BC0E20FF31F8081BF
:100F70002F5F3F4F2F7730702D933C93282F30E019
:100F8000C9010895DC011296ED91FC911397EE577B
:100F9000FF4F80819181929382930895FC01A085F7
:100FA000B18521898C9190E0022E02C0959587959C
:100FB0000A94E2F780FFF6CF0484F585E02D608384
:100FC00008958BE091E0909335028093340280EB9A
:100FD00091E0909337028093360285EC90E09093F5
:100FE00039028093380284EC90E090933B02809326
:100FF0003A0280EC90E090933D0280933C0281ECB9
:1010000090E090933F0280933E0286EC90E09093B4
:1010100041028093400284E08093420283E0809307
:10102000430287E08093440285E08093450281E09B
:10103000809346020895813041F0813018F082306B
:10104000D1F409C010926E00089580916F008D7FD9
:1010500080936F000895809170008D7F8093700061
:1010600081E08093B0008091B100887F846080939C
:10107000B1001092B30008951F93182F80910601BC
:10108000811711F09FEF06C0E2ECF0E094918FEF32
:1010900080930601892F0E941B08812F60E00E9427
:1010A000A5041F9108951F920F920FB60F9211245D
:1010B0002F933F934F935F936F937F938F939F9360
:1010C000AF93BF93EF93FF938091470290914802B3
:1010D000A0914902B0914A020097A105B10551F1D2
:1010E000E0914B02F0914C02808190914D02892752
:1010F00080838091470290914802A0914902B0916B
:101100004A02181619061A061B06C4F480914702F3
:1011100090914802A0914902B0914A020197A10919
:10112000B1098093470290934802A0934902B0937B
:101130004A0204C0809106010E943C08FF91EF9191
:10114000BF91AF919F918F917F916F915F914F91DF
:101150003F912F910F900FBE0F901F9018958823ED
:1011600011F0409A01C040984198419A0895DF9249
:10117000EF92FF920F931F93CF93DF93D62E429A55
:1011800090E054E0880F991F5A95E1F74EE4E42E61
:1011900042E0F42EE80EF91EE7018C01025A1D4FC1
:1011A00088819981907024E0969587952A95E1F73A
:1011B000D81610F481E001C080E00E94AF082296AA
:1011C000C017D10769F7E70110E088818F70D81642
:1011D00010F481E001C080E00E94AF081F5F2296FA
:1011E000183099F710E0F701808191819F70D9162E
:1011F00010F481E001C080E00E94AF081F5F82E030
:1012000090E0E80EF91E183071F74298DF91CF9107
:101210001F910F91FF90EF90DF9008958330B9F008
:10122000843028F4813071F0823070F409C0853048
:1012300091F0853070F0863081F0873099F410C0DD
:1012400084E003C082E001C081E085B9089580E8B0
:1012500005C080E403C080E201C080E18BB908953D
:1012600088E08BB908951F93182F439A8BB187702C
:101270008BB985B1887F85B9812F0E94B708812FEE
:101280000E940E0943981F910895089510928000BE
:10129000E1E8F0E080E1808380E293E090938700D2
:1012A0008093860081E080936F00109285001092F9
:1012B00084008081816080837894089520E030E00C
:1012C0000BC011921192019688309105D1F72F5FD2
:1012D0003F4F2830310559F0F90164E0EE0FFF1F50
:1012E0006A95E1F7E25BFD4F80E090E0EACF089578
:1012F00020E030E00BC06193719301968830910536
:10130000D1F72F5F3F4F2830310559F0F90194E0B4
:10131000EE0FFF1F9A95E1F7E25BFD4F80E090E052
:10132000EACF089540E050E013C0FB01E20FF31F45
:10133000808191818D939D932E5F3F4F20313105A8
:10134000A1F74F5F5F4F605F7F4F4830510559F005
:10135000DA0124E0AA0FBB1F2A95E1F7A25BBD4F7B
:1013600020E030E0E2CF0895222319F420E030E0BD
:101370001AC0DA01862F90E024E0880F991F2A9581
:10138000E1F7FC01E25BFD4FBC01625A7D4F16C0E4
:1013900011921192019688309105D1F72F5F3F4F3E
:1013A0002830310531F3F90184E0EE0FFF1F8A95F3
:1013B000E1F7E25BFD4F80E090E0EACF8D919D91F7
:1013C00081939193E617F707C9F70895222319F43B
:1013D00020E030E017C0DA01862F90E0880F991FD7
:1013E000FC01E25BFD4FBC0162537D4F16C01192C0
:1013F0001192019688309105D1F72F5F3F4F283029
:10140000310549F3F90184E0EE0FFF1F8A95E1F7FA
:10141000E25BFD4F80E090E0EACF8D919D9191835A
:1014200080837096E617F707C1F708950F93742F1E
:10143000A9010023C9F420E030E00BC01D921D92E9
:10144000019688309105D1F72F5F3F4F2830310545
:1014500059F0D90104E0AA0FBB1F0A95E1F7A25B7E
:10146000BD4F80E090E0EACFE62FF0E0A3E0EE0F82
:10147000FF1FAA95E1F7E70FF11DEE0FFF1FE25BDB
:10148000FD4F518340830F9108950F931F93CF9386
:10149000DF93162F1F70193008F019C170E0F6E0C5
:1014A00075956795FA95E1F76130E9F0613000F1E3
:1014B000623041F0633009F00AC120E030E0612F72
:1014C00070E0CDC0812F90E0BC01E4E0660F771F93
:1014D000EA95E1F7640F751FC0E0D0E048E050E006
:1014E000481B590B8EC060E070E0C12FD0E06FC088
:1014F000C0E0D0E0812F90E08C01000F111F68E068
:1015000070E0681B790B24C0819191918D939D931C
:101510002F5F3F4FCB0126173707B4F3DE0133E0CF
:10152000AA0FBB1F3A95E1F7A60FB71FAA0FBB1F63
:10153000A25BBD4F03C01D921D920196883091059C
:10154000D1F72196405F5F4FC830D10509F4BFC085
:10155000FA01E00FF11FDE0184E0AA0FBB1F8A959C
:10156000E1F7A25BBD4F20E030E0D4CF11921192A1
:1015700001968C179D07D4F3DB0103E0AA0FBB1F74
:101580000A95E1F7AC0FBD1FAA0FBB1FA25BBD4FB1
:1015900020E030E009C0FA01E20FF31F8081918161
:1015A0008D939D932E5F3F4F812F90E0880F991F61
:1015B000909581959F4F40962817390761F76F5F87
:1015C0007F4F405F5F4F6830710509F480C0FB01B9
:1015D00024E0EE0FFF1F2A95E1F7E25BFD4F80E06C
:1015E00090E0C7CFFB01E20FF31F808191818D93C3
:1015F0009D932E5F3F4F20313105A1F72196605F0B
:101600007F4F9A01C417D5079CF4DE0194E0AA0F1E
:10161000BB1F9A95E1F7A25BBD4F20E030E0E2CF1F
:1016200011921192019688309105D1F72F5F3F4FAB
:10163000283031050CF04BC0F90184E0EE0FFF1F9C
:101640008A95E1F7E25BFD4F80E090E0E9CF1D92E3
:101650001D92019688309105D1F72F5F3F4F2617D5
:1016600037075CF4D90104E0AA0FBB1F0A95E1F724
:10167000A25BBD4F80E090E0EACF60E070E0012F18
:1016800010E0C8E0D0E0C01BD10B10C0FA01E20F9F
:10169000F31F808191818D939D932E5F3F4F203169
:1016A0003105A1F76F5F7F4F405F5F4FCB01800F28
:1016B000911F6C177D0759F0DC01F4E0AA0FBB1FE6
:1016C000FA95E1F7A25BBD4F20E030E0DFCFDF917C
:1016D000CF911F910F910895BF92CF92DF92EF9219
:1016E000FF920F931F93DF93CF93CDB7DEB7289769
:1016F0000FB6F894DEBF0FBECDBF8C01B22E605284
:1017000080E090E070E023E0660F771F2A95E1F714
:101710009E012F5F3F4FFC01E60FF71FED53FD4F7A
:10172000E491D901A80FB91FEC9301968830910577
:1017300091F7A0E0B0E06E010894C11CD11C91E0CB
:10174000E92EF12C1AC0C701062E02C0880F991F7E
:101750000A94E2F782239323892B19F05183408363
:1017600002C0118210826F5F7F4F709668307105E2
:1017700051F71196A830B10571F0F601EA0FFB1F81
:101780008081282F30E0FD01EE0FFF1FE00FF11FD9
:1017900060E070E0D8CFC8016B2DA8010E94450A17
:1017A00028960FB6F894DEBF0FBECDBFCF91DF9164
:1017B0001F910F91FF90EF90DF90CF90BF90089511
:1017C000CF93DF93EC0140E050E015C0F901EE0F3C
:1017D000FF1FE60FF71F859194918D939D932F5FC7
:1017E0003F4F2830310591F74F5F5F4F605F7F4F6C
:1017F0004830510559F0DA0184E0AA0FBB1F8A95E1
:10180000E1F7AC0FBD1F20E030E0E0CFDF91CF91DA
:1018100008950F931F938C018FEF8AB987B984B90C
:101820001BB815B8C8010E944609C80163EC70E0F6
:101830000E94E00B1F910F910895FC017483638354
:101840000895882339F084E392E00E947307181604
:101850001906CCF784E392E00E949E0708950F9347
:101860001F93CF93DF938A01EC012596CE010E944E
:10187000FA0C09C00150104081E00E94210C682F31
:10188000CE010E94470D01151105A1F7CE010E945E
:101890006B0D81E0DF91CF911F910F910895FC01B5
:1018A0008281882321F081E00E94210C0895CF01DC
:1018B00006960E94040D08950F931F93CF93DF9314
:1018C0008C01EB0104C02197C8010E944F0C2097A6
:1018D000D1F7DF91CF911F910F91089581E00E9480
:1018E000210C8823D9F708950F931F93CF93DF938B
:1018F000EC0184E392E00E947307892B09F440C055
:1019000081E00E94210C182F81E00E94210C082FF9
:1019100081E00E94210C482F612F70E0888199811D
:1019200068177907A1F4EB81FC81309751F081E0D1
:101930008A83842F90E00995182F0E946E0C1A82DA
:101940000BC0CE01642F70E00E945C0C04C0CE017D
:1019500050E00E942F0C182F112329F084E392E00D
:1019600060E071E004C084E392E063E071E00E9413
:10197000EE0584E392E0602F40E050E00E949D0677
:10198000DF91CF911F910F910895EF92FF920F93E6
:101990001F938C017B01FC017183608305960E947B
:1019A0007B0DC8010696B7010E949A0D84E392E070
:1019B00040E855E260E070E00E9416071F910F9129
:1019C000FF90EF9008950F931F938C018FEF9FEF7F
:1019D000F80191838083128214821382C8010596D4
:1019E0000E94F90CC80106960E94F90C1F910F91F4
:1019F0000895089581E0809313036093F00210929C
:101A000011031092120308959091EE028091EF025B
:101A1000981710F080E00895E92FF0E0E253FD4FB1
:101A200080819F5F9093EE020895AC012091160390
:101A30003091170321153105E1F09091EE0280916C
:101A4000EF029817B0F090E008C0FA01EA0FFB1F10
:101A50008081A253BD4F8C939F5FA92FB0E0A61742
:101A6000B7079CF31092EE026093EF02CB01F901ED
:101A700009950895E0911403F0911503309729F02A
:101A80001092110310921203099508950895DF939F
:101A9000CF930F92CDB7DEB769838091130388236C
:101AA00089F080911203803290F480911103E82F25
:101AB000F0E0EF50FD4F60838F5F809311038093C0
:101AC000120305C0CE01019661E00E94F70D0F9050
:101AD000CF91DF9108958091F00261EF72E0409123
:101AE000120321E00E94B40D109211031092120310
:101AF0001092130308951092EE021092EF021092CA
:101B00001103109212030E949D0D08950F931F93CD
:101B10008C01862F0E94B00D8AE39DE00E94170E73
:101B200085E19DE00E94120EC8010E947B0D1F916D
:101B30000F9108950E94860D089510921803449AFB
:101B4000459AE9EBF0E080818E7F808380818D7FF4
:101B5000808388E48093B80085E48093BC00089576
:101B6000880F8093BA0008951F93582F122F413287
:101B700010F081E03AC0809118038823E1F782E0F9
:101B8000809318038FEF8093830310923E0340935A
:101B90003F03AEE1B3E0FB0102C081918D938E2F34
:101BA000861B8417D0F3852F90E0880F991F8093B0
:101BB000190385EE8093BC00112321F08091180356
:101BC0008230E1F3809183038F3F11F480E00DC0F8
:101BD00080918303803211F482E007C080918303F7
:101BE000803311F084E001C083E01F910895482FF5
:101BF000613210F081E0089580911803843011F073
:101C000082E0089560936103A0E4B3E0842F9C0117
:101C1000F90102C081918D938E2F841B8617D0F31A
:101C200080E0089590931D0380931C030895909382
:101C30001B0380931A0308951F920F920FB60F9201
:101C400011242F933F934F935F936F937F938F93C1
:101C50009F93AF93BF93EF93FF938091B90090E070
:101C6000887F90708036910509F4DCC0813691053B
:101C7000CCF58832910509F47BC089329105B4F422
:101C80008031910509F46FC0813191053CF40097D2
:101C900009F431C1089709F039C165C0883191054F
:101CA00009F466C0809709F031C17DC08034910588
:101CB00009F49FC08134910544F48033910509F4FF
:101CC0007DC0C89709F022C184C08035910509F410
:101CD00084C08835910509F491C08834910509F0D4
:101CE00015C198C08839910509F4FDC0893991055D
:101CF000ECF48837910509F495C0893791054CF4C7
:101D00008836910509F48EC08037910509F0FEC030
:101D100089C08838910509F4E6C08039910509F435
:101D200087C08038910509F0F1C082C0803B9105E1
:101D300009F4B0C0813B91054CF4803A910509F457
:101D400089C0883A910509F0E1C0A4C0803C9105A2
:101D500009F4CDC0883C910509F4C9C0883B9105C0
:101D600009F0D4C0ACC0809119038093BB00B9C006
:101D700090913E0380913F03981768F490913E0341
:101D8000E92FF0E0E25EFC4F80818093BB009F5F13
:101D900090933E03A6C085ED8093BC008091BC006B
:101DA00084FDFCCFB1C080E28093830385ED8093F6
:101DB000BC008091BC0084FDFCCFA6C080E3809372
:101DC000830385ED8093BC008091BC0084FDFCCF33
:101DD0009BC088E3809383038AC080913E039091E7
:101DE000BB00E82FF0E0E25EFC4F90838F5F8093B2
:101DF0003E0390913E0380913F0371C080913E036A
:101E00009091BB00E82FF0E0E25EFC4F90838F5F83
:101E100080933E0385ED8093BC008091BC0084FDDF
:101E2000FCCF72C083E0809318031092820359C0E4
:101E300080918203803208F056C080918203909195
:101E4000BB00E82FF0E0EE59FC4F90838F5F80934A
:101E5000820347C080918203803230F4E091820394
:101E6000F0E0EE59FC4F108285ED8093BC0080912C
:101E7000BC0084FDFCCF1092180360918203E091B6
:101E80001C03F0911D0382E693E070E00995109227
:101E900082032DC084E08093180310926003109297
:101EA0006103E0911A03F0911B030995809161038E
:101EB000882329F481E0809361031092400390917C
:101EC0006003E92FF0E0E05CFC4F80818093BB0071
:101ED0009F5F9093600390916003809161039817D6
:101EE00010F485EC01C085E88093BC000FC085EC40
:101EF0008093BC0009C01092830385ED8093BC00E1
:101F00008091BC0084FDFCCF10921803FF91EF91EB
:101F1000BF91AF919F918F917F916F915F914F9101
:101F20003F912F910F900FBE0F901F901895CB01EE
:101F30000E94DE0F0895A1E21A2EAA1BBB1BFD0111
:101F40000DC0AA1FBB1FEE1FFF1FA217B307E40798
:101F5000F50720F0A21BB30BE40BF50B661F771FF0
:101F6000881F991F1A9469F76095709580959095D0
:101F70009B01AC01BD01CF01089597FB092E0526F9
:101F80000ED057FD04D0D7DF0AD0001C38F450958E
:101F90004095309521953F4F4F4F5F4F0895F6F78D
:101FA00090958095709561957F4F8F4F9F4F0895C5
:101FB000EE0FFF1F0590F491E02D0994F999FECFE3
:101FC00092BD81BDF89A992780B50895F894FFCF06
:101FD0004F4B004E4F00FF00000000CE07B705CF6B
:0A1FE0000573079E078407C207007F
:00000001FF
